{
  "_format": "hh-sol-artifact-1",
  "contractName": "cert",
  "sourceName": "contracts/Cert.sol",
  "abi": [
    {
      "inputs": [],
      "stateMutability": "nonpayable",
      "type": "constructor"
    },
    {
      "inputs": [
        {
          "internalType": "uint256",
          "name": "_id",
          "type": "uint256"
        },
        {
          "internalType": "string",
          "name": "_name",
          "type": "string"
        },
        {
          "internalType": "string",
          "name": "_course",
          "type": "string"
        },
        {
          "internalType": "string",
          "name": "_grade",
          "type": "string"
        },
        {
          "internalType": "string",
          "name": "_date",
          "type": "string"
        }
      ],
      "name": "addcertification",
      "outputs": [],
      "stateMutability": "nonpayable",
      "type": "function"
    },
    {
      "inputs": [
        {
          "internalType": "uint256",
          "name": "",
          "type": "uint256"
        }
      ],
      "name": "certificates",
      "outputs": [
        {
          "internalType": "string",
          "name": "name",
          "type": "string"
        },
        {
          "internalType": "string",
          "name": "course",
          "type": "string"
        },
        {
          "internalType": "string",
          "name": "grade",
          "type": "string"
        },
        {
          "internalType": "string",
          "name": "date",
          "type": "string"
        }
      ],
      "stateMutability": "view",
      "type": "function"
    }
  ],
  "bytecode": "0x6080604052348015600f57600080fd5b50336000806101000a81548173ffffffffffffffffffffffffffffffffffffffff021916908373ffffffffffffffffffffffffffffffffffffffff160217905550610b068061005f6000396000f3fe608060405234801561001057600080fd5b50600436106100365760003560e01c80632dbbc6771461003b578063663b3e2214610057575b600080fd5b6100556004803603810190610050919061058e565b61008a565b005b610071600480360381019061006c9190610679565b6101ae565b6040516100819493929190610725565b60405180910390f35b3373ffffffffffffffffffffffffffffffffffffffff1660008054906101000a900473ffffffffffffffffffffffffffffffffffffffff1673ffffffffffffffffffffffffffffffffffffffff1614610118576040517f08c379a000000000000000000000000000000000000000000000000000000000815260040161010f906107d2565b60405180910390fd5b60405180608001604052808581526020018481526020018381526020018281525060016000878152602001908152602001600020600082015181600001908161016191906109fe565b50602082015181600101908161017791906109fe565b50604082015181600201908161018d91906109fe565b5060608201518160030190816101a391906109fe565b509050505050505050565b60016020528060005260406000206000915090508060000180546101d190610821565b80601f01602080910402602001604051908101604052809291908181526020018280546101fd90610821565b801561024a5780601f1061021f5761010080835404028352916020019161024a565b820191906000526020600020905b81548152906001019060200180831161022d57829003601f168201915b50505050509080600101805461025f90610821565b80601f016020809104026020016040519081016040528092919081815260200182805461028b90610821565b80156102d85780601f106102ad576101008083540402835291602001916102d8565b820191906000526020600020905b8154815290600101906020018083116102bb57829003601f168201915b5050505050908060020180546102ed90610821565b80601f016020809104026020016040519081016040528092919081815260200182805461031990610821565b80156103665780601f1061033b57610100808354040283529160200191610366565b820191906000526020600020905b81548152906001019060200180831161034957829003601f168201915b50505050509080600301805461037b90610821565b80601f01602080910402602001604051908101604052809291908181526020018280546103a790610821565b80156103f45780601f106103c9576101008083540402835291602001916103f4565b820191906000526020600020905b8154815290600101906020018083116103d757829003601f168201915b5050505050905084565b6000604051905090565b600080fd5b600080fd5b6000819050919050565b61042581610412565b811461043057600080fd5b50565b6000813590506104428161041c565b92915050565b600080fd5b600080fd5b6000601f19601f8301169050919050565b7f4e487b7100000000000000000000000000000000000000000000000000000000600052604160045260246000fd5b61049b82610452565b810181811067ffffffffffffffff821117156104ba576104b9610463565b5b80604052505050565b60006104cd6103fe565b90506104d98282610492565b919050565b600067ffffffffffffffff8211156104f9576104f8610463565b5b61050282610452565b9050602081019050919050565b82818337600083830152505050565b600061053161052c846104de565b6104c3565b90508281526020810184848401111561054d5761054c61044d565b5b61055884828561050f565b509392505050565b600082601f83011261057557610574610448565b5b813561058584826020860161051e565b91505092915050565b600080600080600060a086880312156105aa576105a9610408565b5b60006105b888828901610433565b955050602086013567ffffffffffffffff8111156105d9576105d861040d565b5b6105e588828901610560565b945050604086013567ffffffffffffffff8111156106065761060561040d565b5b61061288828901610560565b935050606086013567ffffffffffffffff8111156106335761063261040d565b5b61063f88828901610560565b925050608086013567ffffffffffffffff8111156106605761065f61040d565b5b61066c88828901610560565b9150509295509295909350565b60006020828403121561068f5761068e610408565b5b600061069d84828501610433565b91505092915050565b600081519050919050565b600082825260208201905092915050565b60005b838110156106e05780820151818401526020810190506106c5565b60008484015250505050565b60006106f7826106a6565b61070181856106b1565b93506107118185602086016106c2565b61071a81610452565b840191505092915050565b6000608082019050818103600083015261073f81876106ec565b9050818103602083015261075381866106ec565b9050818103604083015261076781856106ec565b9050818103606083015261077b81846106ec565b905095945050505050565b7f4f6e6c792041646d696e00000000000000000000000000000000000000000000600082015250565b60006107bc600a836106b1565b91506107c782610786565b602082019050919050565b600060208201905081810360008301526107eb816107af565b9050919050565b7f4e487b7100000000000000000000000000000000000000000000000000000000600052602260045260246000fd5b6000600282049050600182168061083957607f821691505b60208210810361084c5761084b6107f2565b5b50919050565b60008190508160005260206000209050919050565b60006020601f8301049050919050565b600082821b905092915050565b6000600883026108b47fffffffffffffffffffffffffffffffffffffffffffffffffffffffffffffffff82610877565b6108be8683610877565b95508019841693508086168417925050509392505050565b6000819050919050565b60006108fb6108f66108f184610412565b6108d6565b610412565b9050919050565b6000819050919050565b610915836108e0565b61092961092182610902565b848454610884565b825550505050565b600090565b61093e610931565b61094981848461090c565b505050565b5b8181101561096d57610962600082610936565b60018101905061094f565b5050565b601f8211156109b25761098381610852565b61098c84610867565b8101602085101561099b578190505b6109af6109a785610867565b83018261094e565b50505b505050565b600082821c905092915050565b60006109d5600019846008026109b7565b1980831691505092915050565b60006109ee83836109c4565b9150826002028217905092915050565b610a07826106a6565b67ffffffffffffffff811115610a2057610a1f610463565b5b610a2a8254610821565b610a35828285610971565b600060209050601f831160018114610a685760008415610a56578287015190505b610a6085826109e2565b865550610ac8565b601f198416610a7686610852565b60005b82811015610a9e57848901518255600182019150602085019450602081019050610a79565b86831015610abb5784890151610ab7601f8916826109c4565b8355505b6001600288020188555050505b50505050505056fea2646970667358221220a6b7ac88711f31965834dfe0be0996fbebea98f8ccc064480df90579202c3b9264736f6c634300081e0033",
  "linkReferences": {},
  "deployedLinkReferences": {}
}