{
  "_format": "hh-sol-artifact-1",
  "contractName": "cert",
  "sourceName": "contracts/Cert.sol",
  "abi": [
    {
      "inputs": [],
      "stateMutability": "nonpayable",
      "type": "constructor"
    },
    {
      "anonymous": false,
      "inputs": [
        {
          "indexed": true,
          "internalType": "string",
          "name": "",
          "type": "string"
        },
        {
          "indexed": false,
          "internalType": "uint256",
          "name": "",
          "type": "uint256"
        },
        {
          "indexed": false,
          "internalType": "string",
          "name": "",
          "type": "string"
        }
      ],
      "name": "issue",
      "type": "event"
    },
    {
      "inputs": [
        {
          "internalType": "uint256",
          "name": "_id",
          "type": "uint256"
        },
        {
          "internalType": "string",
          "name": "_name",
          "type": "string"
        },
        {
          "internalType": "string",
          "name": "_course",
          "type": "string"
        },
        {
          "internalType": "string",
          "name": "_grade",
          "type": "string"
        },
        {
          "internalType": "string",
          "name": "_date",
          "type": "string"
        }
      ],
      "name": "addcertification",
      "outputs": [],
      "stateMutability": "nonpayable",
      "type": "function"
    },
    {
      "inputs": [
        {
          "internalType": "uint256",
          "name": "",
          "type": "uint256"
        }
      ],
      "name": "certificates",
      "outputs": [
        {
          "internalType": "string",
          "name": "name",
          "type": "string"
        },
        {
          "internalType": "string",
          "name": "course",
          "type": "string"
        },
        {
          "internalType": "string",
          "name": "grade",
          "type": "string"
        },
        {
          "internalType": "string",
          "name": "date",
          "type": "string"
        }
      ],
      "stateMutability": "view",
      "type": "function"
    }
  ],
  "bytecode": "0x6080604052348015600f57600080fd5b50336000806101000a81548173ffffffffffffffffffffffffffffffffffffffff021916908373ffffffffffffffffffffffffffffffffffffffff160217905550610be78061005f6000396000f3fe608060405234801561001057600080fd5b50600436106100365760003560e01c80632dbbc6771461003b578063663b3e2214610057575b600080fd5b610055600480360381019061005091906105dd565b61008a565b005b610071600480360381019061006c91906106c8565b6101fd565b6040516100819493929190610774565b60405180910390f35b3373ffffffffffffffffffffffffffffffffffffffff1660008054906101000a900473ffffffffffffffffffffffffffffffffffffffff1673ffffffffffffffffffffffffffffffffffffffff1614610118576040517f08c379a000000000000000000000000000000000000000000000000000000000815260040161010f90610821565b60405180910390fd5b6040518060800160405280858152602001848152602001838152602001828152506001600087815260200190815260200160002060008201518160000190816101619190610a4d565b5060208201518160010190816101779190610a4d565b50604082015181600201908161018d9190610a4d565b5060608201518160030190816101a39190610a4d565b50905050826040516101b59190610b5b565b60405180910390207f258c1541ed9980bc9c337ba959d542afb90df52683d3f3527cd443844660e3e286846040516101ee929190610b81565b60405180910390a25050505050565b600160205280600052604060002060009150905080600001805461022090610870565b80601f016020809104026020016040519081016040528092919081815260200182805461024c90610870565b80156102995780601f1061026e57610100808354040283529160200191610299565b820191906000526020600020905b81548152906001019060200180831161027c57829003601f168201915b5050505050908060010180546102ae90610870565b80601f01602080910402602001604051908101604052809291908181526020018280546102da90610870565b80156103275780601f106102fc57610100808354040283529160200191610327565b820191906000526020600020905b81548152906001019060200180831161030a57829003601f168201915b50505050509080600201805461033c90610870565b80601f016020809104026020016040519081016040528092919081815260200182805461036890610870565b80156103b55780601f1061038a576101008083540402835291602001916103b5565b820191906000526020600020905b81548152906001019060200180831161039857829003601f168201915b5050505050908060030180546103ca90610870565b80601f01602080910402602001604051908101604052809291908181526020018280546103f690610870565b80156104435780601f1061041857610100808354040283529160200191610443565b820191906000526020600020905b81548152906001019060200180831161042657829003601f168201915b5050505050905084565b6000604051905090565b600080fd5b600080fd5b6000819050919050565b61047481610461565b811461047f57600080fd5b50565b6000813590506104918161046b565b92915050565b600080fd5b600080fd5b6000601f19601f8301169050919050565b7f4e487b7100000000000000000000000000000000000000000000000000000000600052604160045260246000fd5b6104ea826104a1565b810181811067ffffffffffffffff82111715610509576105086104b2565b5b80604052505050565b600061051c61044d565b905061052882826104e1565b919050565b600067ffffffffffffffff821115610548576105476104b2565b5b610551826104a1565b9050602081019050919050565b82818337600083830152505050565b600061058061057b8461052d565b610512565b90508281526020810184848401111561059c5761059b61049c565b5b6105a784828561055e565b509392505050565b600082601f8301126105c4576105c3610497565b5b81356105d484826020860161056d565b91505092915050565b600080600080600060a086880312156105f9576105f8610457565b5b600061060788828901610482565b955050602086013567ffffffffffffffff8111156106285761062761045c565b5b610634888289016105af565b945050604086013567ffffffffffffffff8111156106555761065461045c565b5b610661888289016105af565b935050606086013567ffffffffffffffff8111156106825761068161045c565b5b61068e888289016105af565b925050608086013567ffffffffffffffff8111156106af576106ae61045c565b5b6106bb888289016105af565b9150509295509295909350565b6000602082840312156106de576106dd610457565b5b60006106ec84828501610482565b91505092915050565b600081519050919050565b600082825260208201905092915050565b60005b8381101561072f578082015181840152602081019050610714565b60008484015250505050565b6000610746826106f5565b6107508185610700565b9350610760818560208601610711565b610769816104a1565b840191505092915050565b6000608082019050818103600083015261078e818761073b565b905081810360208301526107a2818661073b565b905081810360408301526107b6818561073b565b905081810360608301526107ca818461073b565b905095945050505050565b7f4f6e6c792041646d696e00000000000000000000000000000000000000000000600082015250565b600061080b600a83610700565b9150610816826107d5565b602082019050919050565b6000602082019050818103600083015261083a816107fe565b9050919050565b7f4e487b7100000000000000000000000000000000000000000000000000000000600052602260045260246000fd5b6000600282049050600182168061088857607f821691505b60208210810361089b5761089a610841565b5b50919050565b60008190508160005260206000209050919050565b60006020601f8301049050919050565b600082821b905092915050565b6000600883026109037fffffffffffffffffffffffffffffffffffffffffffffffffffffffffffffffff826108c6565b61090d86836108c6565b95508019841693508086168417925050509392505050565b6000819050919050565b600061094a61094561094084610461565b610925565b610461565b9050919050565b6000819050919050565b6109648361092f565b61097861097082610951565b8484546108d3565b825550505050565b600090565b61098d610980565b61099881848461095b565b505050565b5b818110156109bc576109b1600082610985565b60018101905061099e565b5050565b601f821115610a01576109d2816108a1565b6109db846108b6565b810160208510156109ea578190505b6109fe6109f6856108b6565b83018261099d565b50505b505050565b600082821c905092915050565b6000610a2460001984600802610a06565b1980831691505092915050565b6000610a3d8383610a13565b9150826002028217905092915050565b610a56826106f5565b67ffffffffffffffff811115610a6f57610a6e6104b2565b5b610a798254610870565b610a848282856109c0565b600060209050601f831160018114610ab75760008415610aa5578287015190505b610aaf8582610a31565b865550610b17565b601f198416610ac5866108a1565b60005b82811015610aed57848901518255600182019150602085019450602081019050610ac8565b86831015610b0a5784890151610b06601f891682610a13565b8355505b6001600288020188555050505b505050505050565b600081905092915050565b6000610b35826106f5565b610b3f8185610b1f565b9350610b4f818560208601610711565b80840191505092915050565b6000610b678284610b2a565b915081905092915050565b610b7b81610461565b82525050565b6000604082019050610b966000830185610b72565b8181036020830152610ba8818461073b565b9050939250505056fea2646970667358221220086ee7c458da3b4aa59d19c36379ee5525652eb6019a10aa30f03c031091a68964736f6c634300081e0033",
  "linkReferences": {},
  "deployedLinkReferences": {}
}