{
  "contracts/Cert.sol": {
    "cert": {
      "abi": [
        {
          "inputs": [],
          "stateMutability": "nonpayable",
          "type": "constructor"
        },
        {
          "anonymous": false,
          "inputs": [
            {
              "indexed": true,
              "internalType": "string",
              "name": "",
              "type": "string"
            },
            {
              "indexed": false,
              "internalType": "uint256",
              "name": "",
              "type": "uint256"
            },
            {
              "indexed": false,
              "internalType": "string",
              "name": "",
              "type": "string"
            }
          ],
          "name": "issue",
          "type": "event"
        },
        {
          "inputs": [
            {
              "internalType": "uint256",
              "name": "_id",
              "type": "uint256"
            },
            {
              "internalType": "string",
              "name": "_name",
              "type": "string"
            },
            {
              "internalType": "string",
              "name": "_course",
              "type": "string"
            },
            {
              "internalType": "string",
              "name": "_grade",
              "type": "string"
            },
            {
              "internalType": "string",
              "name": "_date",
              "type": "string"
            }
          ],
          "name": "addcertification",
          "outputs": [],
          "stateMutability": "nonpayable",
          "type": "function"
        },
        {
          "inputs": [
            {
              "internalType": "uint256",
              "name": "",
              "type": "uint256"
            }
          ],
          "name": "certificates",
          "outputs": [
            {
              "internalType": "string",
              "name": "name",
              "type": "string"
            },
            {
              "internalType": "string",
              "name": "course",
              "type": "string"
            },
            {
              "internalType": "string",
              "name": "grade",
              "type": "string"
            },
            {
              "internalType": "string",
              "name": "date",
              "type": "string"
            }
          ],
          "stateMutability": "view",
          "type": "function"
        }
      ],
      "evm": {
        "bytecode": {
          "linkReferences": {},
          "object": "6080604052348015600f57600080fd5b50336000806101000a81548173ffffffffffffffffffffffffffffffffffffffff021916908373ffffffffffffffffffffffffffffffffffffffff160217905550610be78061005f6000396000f3fe608060405234801561001057600080fd5b50600436106100365760003560e01c80632dbbc6771461003b578063663b3e2214610057575b600080fd5b610055600480360381019061005091906105dd565b61008a565b005b610071600480360381019061006c91906106c8565b6101fd565b6040516100819493929190610774565b60405180910390f35b3373ffffffffffffffffffffffffffffffffffffffff1660008054906101000a900473ffffffffffffffffffffffffffffffffffffffff1673ffffffffffffffffffffffffffffffffffffffff1614610118576040517f08c379a000000000000000000000000000000000000000000000000000000000815260040161010f90610821565b60405180910390fd5b6040518060800160405280858152602001848152602001838152602001828152506001600087815260200190815260200160002060008201518160000190816101619190610a4d565b5060208201518160010190816101779190610a4d565b50604082015181600201908161018d9190610a4d565b5060608201518160030190816101a39190610a4d565b50905050826040516101b59190610b5b565b60405180910390207f258c1541ed9980bc9c337ba959d542afb90df52683d3f3527cd443844660e3e286846040516101ee929190610b81565b60405180910390a25050505050565b600160205280600052604060002060009150905080600001805461022090610870565b80601f016020809104026020016040519081016040528092919081815260200182805461024c90610870565b80156102995780601f1061026e57610100808354040283529160200191610299565b820191906000526020600020905b81548152906001019060200180831161027c57829003601f168201915b5050505050908060010180546102ae90610870565b80601f01602080910402602001604051908101604052809291908181526020018280546102da90610870565b80156103275780601f106102fc57610100808354040283529160200191610327565b820191906000526020600020905b81548152906001019060200180831161030a57829003601f168201915b50505050509080600201805461033c90610870565b80601f016020809104026020016040519081016040528092919081815260200182805461036890610870565b80156103b55780601f1061038a576101008083540402835291602001916103b5565b820191906000526020600020905b81548152906001019060200180831161039857829003601f168201915b5050505050908060030180546103ca90610870565b80601f01602080910402602001604051908101604052809291908181526020018280546103f690610870565b80156104435780601f1061041857610100808354040283529160200191610443565b820191906000526020600020905b81548152906001019060200180831161042657829003601f168201915b5050505050905084565b6000604051905090565b600080fd5b600080fd5b6000819050919050565b61047481610461565b811461047f57600080fd5b50565b6000813590506104918161046b565b92915050565b600080fd5b600080fd5b6000601f19601f8301169050919050565b7f4e487b7100000000000000000000000000000000000000000000000000000000600052604160045260246000fd5b6104ea826104a1565b810181811067ffffffffffffffff82111715610509576105086104b2565b5b80604052505050565b600061051c61044d565b905061052882826104e1565b919050565b600067ffffffffffffffff821115610548576105476104b2565b5b610551826104a1565b9050602081019050919050565b82818337600083830152505050565b600061058061057b8461052d565b610512565b90508281526020810184848401111561059c5761059b61049c565b5b6105a784828561055e565b509392505050565b600082601f8301126105c4576105c3610497565b5b81356105d484826020860161056d565b91505092915050565b600080600080600060a086880312156105f9576105f8610457565b5b600061060788828901610482565b955050602086013567ffffffffffffffff8111156106285761062761045c565b5b610634888289016105af565b945050604086013567ffffffffffffffff8111156106555761065461045c565b5b610661888289016105af565b935050606086013567ffffffffffffffff8111156106825761068161045c565b5b61068e888289016105af565b925050608086013567ffffffffffffffff8111156106af576106ae61045c565b5b6106bb888289016105af565b9150509295509295909350565b6000602082840312156106de576106dd610457565b5b60006106ec84828501610482565b91505092915050565b600081519050919050565b600082825260208201905092915050565b60005b8381101561072f578082015181840152602081019050610714565b60008484015250505050565b6000610746826106f5565b6107508185610700565b9350610760818560208601610711565b610769816104a1565b840191505092915050565b6000608082019050818103600083015261078e818761073b565b905081810360208301526107a2818661073b565b905081810360408301526107b6818561073b565b905081810360608301526107ca818461073b565b905095945050505050565b7f4f6e6c792041646d696e00000000000000000000000000000000000000000000600082015250565b600061080b600a83610700565b9150610816826107d5565b602082019050919050565b6000602082019050818103600083015261083a816107fe565b9050919050565b7f4e487b7100000000000000000000000000000000000000000000000000000000600052602260045260246000fd5b6000600282049050600182168061088857607f821691505b60208210810361089b5761089a610841565b5b50919050565b60008190508160005260206000209050919050565b60006020601f8301049050919050565b600082821b905092915050565b6000600883026109037fffffffffffffffffffffffffffffffffffffffffffffffffffffffffffffffff826108c6565b61090d86836108c6565b95508019841693508086168417925050509392505050565b6000819050919050565b600061094a61094561094084610461565b610925565b610461565b9050919050565b6000819050919050565b6109648361092f565b61097861097082610951565b8484546108d3565b825550505050565b600090565b61098d610980565b61099881848461095b565b505050565b5b818110156109bc576109b1600082610985565b60018101905061099e565b5050565b601f821115610a01576109d2816108a1565b6109db846108b6565b810160208510156109ea578190505b6109fe6109f6856108b6565b83018261099d565b50505b505050565b600082821c905092915050565b6000610a2460001984600802610a06565b1980831691505092915050565b6000610a3d8383610a13565b9150826002028217905092915050565b610a56826106f5565b67ffffffffffffffff811115610a6f57610a6e6104b2565b5b610a798254610870565b610a848282856109c0565b600060209050601f831160018114610ab75760008415610aa5578287015190505b610aaf8582610a31565b865550610b17565b601f198416610ac5866108a1565b60005b82811015610aed57848901518255600182019150602085019450602081019050610ac8565b86831015610b0a5784890151610b06601f891682610a13565b8355505b6001600288020188555050505b505050505050565b600081905092915050565b6000610b35826106f5565b610b3f8185610b1f565b9350610b4f818560208601610711565b80840191505092915050565b6000610b678284610b2a565b915081905092915050565b610b7b81610461565b82525050565b6000604082019050610b966000830185610b72565b8181036020830152610ba8818461073b565b9050939250505056fea2646970667358221220086ee7c458da3b4aa59d19c36379ee5525652eb6019a10aa30f03c031091a68964736f6c634300081e0033",
          "opcodes": "PUSH1 0x80 PUSH1 0x40 MSTORE CALLVALUE DUP1 ISZERO PUSH1 0xF JUMPI PUSH1 0x0 DUP1 REVERT JUMPDEST POP CALLER PUSH1 0x0 DUP1 PUSH2 0x100 EXP DUP2 SLOAD DUP2 PUSH20 0xFFFFFFFFFFFFFFFFFFFFFFFFFFFFFFFFFFFFFFFF MUL NOT AND SWAP1 DUP4 PUSH20 0xFFFFFFFFFFFFFFFFFFFFFFFFFFFFFFFFFFFFFFFF AND MUL OR SWAP1 SSTORE POP PUSH2 0xBE7 DUP1 PUSH2 0x5F PUSH1 0x0 CODECOPY PUSH1 0x0 RETURN INVALID PUSH1 0x80 PUSH1 0x40 MSTORE CALLVALUE DUP1 ISZERO PUSH2 0x10 JUMPI PUSH1 0x0 DUP1 REVERT JUMPDEST POP PUSH1 0x4 CALLDATASIZE LT PUSH2 0x36 JUMPI PUSH1 0x0 CALLDATALOAD PUSH1 0xE0 SHR DUP1 PUSH4 0x2DBBC677 EQ PUSH2 0x3B JUMPI DUP1 PUSH4 0x663B3E22 EQ PUSH2 0x57 JUMPI JUMPDEST PUSH1 0x0 DUP1 REVERT JUMPDEST PUSH2 0x55 PUSH1 0x4 DUP1 CALLDATASIZE SUB DUP2 ADD SWAP1 PUSH2 0x50 SWAP2 SWAP1 PUSH2 0x5DD JUMP JUMPDEST PUSH2 0x8A JUMP JUMPDEST STOP JUMPDEST PUSH2 0x71 PUSH1 0x4 DUP1 CALLDATASIZE SUB DUP2 ADD SWAP1 PUSH2 0x6C SWAP2 SWAP1 PUSH2 0x6C8 JUMP JUMPDEST PUSH2 0x1FD JUMP JUMPDEST PUSH1 0x40 MLOAD PUSH2 0x81 SWAP5 SWAP4 SWAP3 SWAP2 SWAP1 PUSH2 0x774 JUMP JUMPDEST PUSH1 0x40 MLOAD DUP1 SWAP2 SUB SWAP1 RETURN JUMPDEST CALLER PUSH20 0xFFFFFFFFFFFFFFFFFFFFFFFFFFFFFFFFFFFFFFFF AND PUSH1 0x0 DUP1 SLOAD SWAP1 PUSH2 0x100 EXP SWAP1 DIV PUSH20 0xFFFFFFFFFFFFFFFFFFFFFFFFFFFFFFFFFFFFFFFF AND PUSH20 0xFFFFFFFFFFFFFFFFFFFFFFFFFFFFFFFFFFFFFFFF AND EQ PUSH2 0x118 JUMPI PUSH1 0x40 MLOAD PUSH32 0x8C379A000000000000000000000000000000000000000000000000000000000 DUP2 MSTORE PUSH1 0x4 ADD PUSH2 0x10F SWAP1 PUSH2 0x821 JUMP JUMPDEST PUSH1 0x40 MLOAD DUP1 SWAP2 SUB SWAP1 REVERT JUMPDEST PUSH1 0x40 MLOAD DUP1 PUSH1 0x80 ADD PUSH1 0x40 MSTORE DUP1 DUP6 DUP2 MSTORE PUSH1 0x20 ADD DUP5 DUP2 MSTORE PUSH1 0x20 ADD DUP4 DUP2 MSTORE PUSH1 0x20 ADD DUP3 DUP2 MSTORE POP PUSH1 0x1 PUSH1 0x0 DUP8 DUP2 MSTORE PUSH1 0x20 ADD SWAP1 DUP2 MSTORE PUSH1 0x20 ADD PUSH1 0x0 KECCAK256 PUSH1 0x0 DUP3 ADD MLOAD DUP2 PUSH1 0x0 ADD SWAP1 DUP2 PUSH2 0x161 SWAP2 SWAP1 PUSH2 0xA4D JUMP JUMPDEST POP PUSH1 0x20 DUP3 ADD MLOAD DUP2 PUSH1 0x1 ADD SWAP1 DUP2 PUSH2 0x177 SWAP2 SWAP1 PUSH2 0xA4D JUMP JUMPDEST POP PUSH1 0x40 DUP3 ADD MLOAD DUP2 PUSH1 0x2 ADD SWAP1 DUP2 PUSH2 0x18D SWAP2 SWAP1 PUSH2 0xA4D JUMP JUMPDEST POP PUSH1 0x60 DUP3 ADD MLOAD DUP2 PUSH1 0x3 ADD SWAP1 DUP2 PUSH2 0x1A3 SWAP2 SWAP1 PUSH2 0xA4D JUMP JUMPDEST POP SWAP1 POP POP DUP3 PUSH1 0x40 MLOAD PUSH2 0x1B5 SWAP2 SWAP1 PUSH2 0xB5B JUMP JUMPDEST PUSH1 0x40 MLOAD DUP1 SWAP2 SUB SWAP1 KECCAK256 PUSH32 0x258C1541ED9980BC9C337BA959D542AFB90DF52683D3F3527CD443844660E3E2 DUP7 DUP5 PUSH1 0x40 MLOAD PUSH2 0x1EE SWAP3 SWAP2 SWAP1 PUSH2 0xB81 JUMP JUMPDEST PUSH1 0x40 MLOAD DUP1 SWAP2 SUB SWAP1 LOG2 POP POP POP POP POP JUMP JUMPDEST PUSH1 0x1 PUSH1 0x20 MSTORE DUP1 PUSH1 0x0 MSTORE PUSH1 0x40 PUSH1 0x0 KECCAK256 PUSH1 0x0 SWAP2 POP SWAP1 POP DUP1 PUSH1 0x0 ADD DUP1 SLOAD PUSH2 0x220 SWAP1 PUSH2 0x870 JUMP JUMPDEST DUP1 PUSH1 0x1F ADD PUSH1 0x20 DUP1 SWAP2 DIV MUL PUSH1 0x20 ADD PUSH1 0x40 MLOAD SWAP1 DUP2 ADD PUSH1 0x40 MSTORE DUP1 SWAP3 SWAP2 SWAP1 DUP2 DUP2 MSTORE PUSH1 0x20 ADD DUP3 DUP1 SLOAD PUSH2 0x24C SWAP1 PUSH2 0x870 JUMP JUMPDEST DUP1 ISZERO PUSH2 0x299 JUMPI DUP1 PUSH1 0x1F LT PUSH2 0x26E JUMPI PUSH2 0x100 DUP1 DUP4 SLOAD DIV MUL DUP4 MSTORE SWAP2 PUSH1 0x20 ADD SWAP2 PUSH2 0x299 JUMP JUMPDEST DUP3 ADD SWAP2 SWAP1 PUSH1 0x0 MSTORE PUSH1 0x20 PUSH1 0x0 KECCAK256 SWAP1 JUMPDEST DUP2 SLOAD DUP2 MSTORE SWAP1 PUSH1 0x1 ADD SWAP1 PUSH1 0x20 ADD DUP1 DUP4 GT PUSH2 0x27C JUMPI DUP3 SWAP1 SUB PUSH1 0x1F AND DUP3 ADD SWAP2 JUMPDEST POP POP POP POP POP SWAP1 DUP1 PUSH1 0x1 ADD DUP1 SLOAD PUSH2 0x2AE SWAP1 PUSH2 0x870 JUMP JUMPDEST DUP1 PUSH1 0x1F ADD PUSH1 0x20 DUP1 SWAP2 DIV MUL PUSH1 0x20 ADD PUSH1 0x40 MLOAD SWAP1 DUP2 ADD PUSH1 0x40 MSTORE DUP1 SWAP3 SWAP2 SWAP1 DUP2 DUP2 MSTORE PUSH1 0x20 ADD DUP3 DUP1 SLOAD PUSH2 0x2DA SWAP1 PUSH2 0x870 JUMP JUMPDEST DUP1 ISZERO PUSH2 0x327 JUMPI DUP1 PUSH1 0x1F LT PUSH2 0x2FC JUMPI PUSH2 0x100 DUP1 DUP4 SLOAD DIV MUL DUP4 MSTORE SWAP2 PUSH1 0x20 ADD SWAP2 PUSH2 0x327 JUMP JUMPDEST DUP3 ADD SWAP2 SWAP1 PUSH1 0x0 MSTORE PUSH1 0x20 PUSH1 0x0 KECCAK256 SWAP1 JUMPDEST DUP2 SLOAD DUP2 MSTORE SWAP1 PUSH1 0x1 ADD SWAP1 PUSH1 0x20 ADD DUP1 DUP4 GT PUSH2 0x30A JUMPI DUP3 SWAP1 SUB PUSH1 0x1F AND DUP3 ADD SWAP2 JUMPDEST POP POP POP POP POP SWAP1 DUP1 PUSH1 0x2 ADD DUP1 SLOAD PUSH2 0x33C SWAP1 PUSH2 0x870 JUMP JUMPDEST DUP1 PUSH1 0x1F ADD PUSH1 0x20 DUP1 SWAP2 DIV MUL PUSH1 0x20 ADD PUSH1 0x40 MLOAD SWAP1 DUP2 ADD PUSH1 0x40 MSTORE DUP1 SWAP3 SWAP2 SWAP1 DUP2 DUP2 MSTORE PUSH1 0x20 ADD DUP3 DUP1 SLOAD PUSH2 0x368 SWAP1 PUSH2 0x870 JUMP JUMPDEST DUP1 ISZERO PUSH2 0x3B5 JUMPI DUP1 PUSH1 0x1F LT PUSH2 0x38A JUMPI PUSH2 0x100 DUP1 DUP4 SLOAD DIV MUL DUP4 MSTORE SWAP2 PUSH1 0x20 ADD SWAP2 PUSH2 0x3B5 JUMP JUMPDEST DUP3 ADD SWAP2 SWAP1 PUSH1 0x0 MSTORE PUSH1 0x20 PUSH1 0x0 KECCAK256 SWAP1 JUMPDEST DUP2 SLOAD DUP2 MSTORE SWAP1 PUSH1 0x1 ADD SWAP1 PUSH1 0x20 ADD DUP1 DUP4 GT PUSH2 0x398 JUMPI DUP3 SWAP1 SUB PUSH1 0x1F AND DUP3 ADD SWAP2 JUMPDEST POP POP POP POP POP SWAP1 DUP1 PUSH1 0x3 ADD DUP1 SLOAD PUSH2 0x3CA SWAP1 PUSH2 0x870 JUMP JUMPDEST DUP1 PUSH1 0x1F ADD PUSH1 0x20 DUP1 SWAP2 DIV MUL PUSH1 0x20 ADD PUSH1 0x40 MLOAD SWAP1 DUP2 ADD PUSH1 0x40 MSTORE DUP1 SWAP3 SWAP2 SWAP1 DUP2 DUP2 MSTORE PUSH1 0x20 ADD DUP3 DUP1 SLOAD PUSH2 0x3F6 SWAP1 PUSH2 0x870 JUMP JUMPDEST DUP1 ISZERO PUSH2 0x443 JUMPI DUP1 PUSH1 0x1F LT PUSH2 0x418 JUMPI PUSH2 0x100 DUP1 DUP4 SLOAD DIV MUL DUP4 MSTORE SWAP2 PUSH1 0x20 ADD SWAP2 PUSH2 0x443 JUMP JUMPDEST DUP3 ADD SWAP2 SWAP1 PUSH1 0x0 MSTORE PUSH1 0x20 PUSH1 0x0 KECCAK256 SWAP1 JUMPDEST DUP2 SLOAD DUP2 MSTORE SWAP1 PUSH1 0x1 ADD SWAP1 PUSH1 0x20 ADD DUP1 DUP4 GT PUSH2 0x426 JUMPI DUP3 SWAP1 SUB PUSH1 0x1F AND DUP3 ADD SWAP2 JUMPDEST POP POP POP POP POP SWAP1 POP DUP5 JUMP JUMPDEST PUSH1 0x0 PUSH1 0x40 MLOAD SWAP1 POP SWAP1 JUMP JUMPDEST PUSH1 0x0 DUP1 REVERT JUMPDEST PUSH1 0x0 DUP1 REVERT JUMPDEST PUSH1 0x0 DUP2 SWAP1 POP SWAP2 SWAP1 POP JUMP JUMPDEST PUSH2 0x474 DUP2 PUSH2 0x461 JUMP JUMPDEST DUP2 EQ PUSH2 0x47F JUMPI PUSH1 0x0 DUP1 REVERT JUMPDEST POP JUMP JUMPDEST PUSH1 0x0 DUP2 CALLDATALOAD SWAP1 POP PUSH2 0x491 DUP2 PUSH2 0x46B JUMP JUMPDEST SWAP3 SWAP2 POP POP JUMP JUMPDEST PUSH1 0x0 DUP1 REVERT JUMPDEST PUSH1 0x0 DUP1 REVERT JUMPDEST PUSH1 0x0 PUSH1 0x1F NOT PUSH1 0x1F DUP4 ADD AND SWAP1 POP SWAP2 SWAP1 POP JUMP JUMPDEST PUSH32 0x4E487B7100000000000000000000000000000000000000000000000000000000 PUSH1 0x0 MSTORE PUSH1 0x41 PUSH1 0x4 MSTORE PUSH1 0x24 PUSH1 0x0 REVERT JUMPDEST PUSH2 0x4EA DUP3 PUSH2 0x4A1 JUMP JUMPDEST DUP2 ADD DUP2 DUP2 LT PUSH8 0xFFFFFFFFFFFFFFFF DUP3 GT OR ISZERO PUSH2 0x509 JUMPI PUSH2 0x508 PUSH2 0x4B2 JUMP JUMPDEST JUMPDEST DUP1 PUSH1 0x40 MSTORE POP POP POP JUMP JUMPDEST PUSH1 0x0 PUSH2 0x51C PUSH2 0x44D JUMP JUMPDEST SWAP1 POP PUSH2 0x528 DUP3 DUP3 PUSH2 0x4E1 JUMP JUMPDEST SWAP2 SWAP1 POP JUMP JUMPDEST PUSH1 0x0 PUSH8 0xFFFFFFFFFFFFFFFF DUP3 GT ISZERO PUSH2 0x548 JUMPI PUSH2 0x547 PUSH2 0x4B2 JUMP JUMPDEST JUMPDEST PUSH2 0x551 DUP3 PUSH2 0x4A1 JUMP JUMPDEST SWAP1 POP PUSH1 0x20 DUP2 ADD SWAP1 POP SWAP2 SWAP1 POP JUMP JUMPDEST DUP3 DUP2 DUP4 CALLDATACOPY PUSH1 0x0 DUP4 DUP4 ADD MSTORE POP POP POP JUMP JUMPDEST PUSH1 0x0 PUSH2 0x580 PUSH2 0x57B DUP5 PUSH2 0x52D JUMP JUMPDEST PUSH2 0x512 JUMP JUMPDEST SWAP1 POP DUP3 DUP2 MSTORE PUSH1 0x20 DUP2 ADD DUP5 DUP5 DUP5 ADD GT ISZERO PUSH2 0x59C JUMPI PUSH2 0x59B PUSH2 0x49C JUMP JUMPDEST JUMPDEST PUSH2 0x5A7 DUP5 DUP3 DUP6 PUSH2 0x55E JUMP JUMPDEST POP SWAP4 SWAP3 POP POP POP JUMP JUMPDEST PUSH1 0x0 DUP3 PUSH1 0x1F DUP4 ADD SLT PUSH2 0x5C4 JUMPI PUSH2 0x5C3 PUSH2 0x497 JUMP JUMPDEST JUMPDEST DUP2 CALLDATALOAD PUSH2 0x5D4 DUP5 DUP3 PUSH1 0x20 DUP7 ADD PUSH2 0x56D JUMP JUMPDEST SWAP2 POP POP SWAP3 SWAP2 POP POP JUMP JUMPDEST PUSH1 0x0 DUP1 PUSH1 0x0 DUP1 PUSH1 0x0 PUSH1 0xA0 DUP7 DUP9 SUB SLT ISZERO PUSH2 0x5F9 JUMPI PUSH2 0x5F8 PUSH2 0x457 JUMP JUMPDEST JUMPDEST PUSH1 0x0 PUSH2 0x607 DUP9 DUP3 DUP10 ADD PUSH2 0x482 JUMP JUMPDEST SWAP6 POP POP PUSH1 0x20 DUP7 ADD CALLDATALOAD PUSH8 0xFFFFFFFFFFFFFFFF DUP2 GT ISZERO PUSH2 0x628 JUMPI PUSH2 0x627 PUSH2 0x45C JUMP JUMPDEST JUMPDEST PUSH2 0x634 DUP9 DUP3 DUP10 ADD PUSH2 0x5AF JUMP JUMPDEST SWAP5 POP POP PUSH1 0x40 DUP7 ADD CALLDATALOAD PUSH8 0xFFFFFFFFFFFFFFFF DUP2 GT ISZERO PUSH2 0x655 JUMPI PUSH2 0x654 PUSH2 0x45C JUMP JUMPDEST JUMPDEST PUSH2 0x661 DUP9 DUP3 DUP10 ADD PUSH2 0x5AF JUMP JUMPDEST SWAP4 POP POP PUSH1 0x60 DUP7 ADD CALLDATALOAD PUSH8 0xFFFFFFFFFFFFFFFF DUP2 GT ISZERO PUSH2 0x682 JUMPI PUSH2 0x681 PUSH2 0x45C JUMP JUMPDEST JUMPDEST PUSH2 0x68E DUP9 DUP3 DUP10 ADD PUSH2 0x5AF JUMP JUMPDEST SWAP3 POP POP PUSH1 0x80 DUP7 ADD CALLDATALOAD PUSH8 0xFFFFFFFFFFFFFFFF DUP2 GT ISZERO PUSH2 0x6AF JUMPI PUSH2 0x6AE PUSH2 0x45C JUMP JUMPDEST JUMPDEST PUSH2 0x6BB DUP9 DUP3 DUP10 ADD PUSH2 0x5AF JUMP JUMPDEST SWAP2 POP POP SWAP3 SWAP6 POP SWAP3 SWAP6 SWAP1 SWAP4 POP JUMP JUMPDEST PUSH1 0x0 PUSH1 0x20 DUP3 DUP5 SUB SLT ISZERO PUSH2 0x6DE JUMPI PUSH2 0x6DD PUSH2 0x457 JUMP JUMPDEST JUMPDEST PUSH1 0x0 PUSH2 0x6EC DUP5 DUP3 DUP6 ADD PUSH2 0x482 JUMP JUMPDEST SWAP2 POP POP SWAP3 SWAP2 POP POP JUMP JUMPDEST PUSH1 0x0 DUP2 MLOAD SWAP1 POP SWAP2 SWAP1 POP JUMP JUMPDEST PUSH1 0x0 DUP3 DUP3 MSTORE PUSH1 0x20 DUP3 ADD SWAP1 POP SWAP3 SWAP2 POP POP JUMP JUMPDEST PUSH1 0x0 JUMPDEST DUP4 DUP2 LT ISZERO PUSH2 0x72F JUMPI DUP1 DUP3 ADD MLOAD DUP2 DUP5 ADD MSTORE PUSH1 0x20 DUP2 ADD SWAP1 POP PUSH2 0x714 JUMP JUMPDEST PUSH1 0x0 DUP5 DUP5 ADD MSTORE POP POP POP POP JUMP JUMPDEST PUSH1 0x0 PUSH2 0x746 DUP3 PUSH2 0x6F5 JUMP JUMPDEST PUSH2 0x750 DUP2 DUP6 PUSH2 0x700 JUMP JUMPDEST SWAP4 POP PUSH2 0x760 DUP2 DUP6 PUSH1 0x20 DUP7 ADD PUSH2 0x711 JUMP JUMPDEST PUSH2 0x769 DUP2 PUSH2 0x4A1 JUMP JUMPDEST DUP5 ADD SWAP2 POP POP SWAP3 SWAP2 POP POP JUMP JUMPDEST PUSH1 0x0 PUSH1 0x80 DUP3 ADD SWAP1 POP DUP2 DUP2 SUB PUSH1 0x0 DUP4 ADD MSTORE PUSH2 0x78E DUP2 DUP8 PUSH2 0x73B JUMP JUMPDEST SWAP1 POP DUP2 DUP2 SUB PUSH1 0x20 DUP4 ADD MSTORE PUSH2 0x7A2 DUP2 DUP7 PUSH2 0x73B JUMP JUMPDEST SWAP1 POP DUP2 DUP2 SUB PUSH1 0x40 DUP4 ADD MSTORE PUSH2 0x7B6 DUP2 DUP6 PUSH2 0x73B JUMP JUMPDEST SWAP1 POP DUP2 DUP2 SUB PUSH1 0x60 DUP4 ADD MSTORE PUSH2 0x7CA DUP2 DUP5 PUSH2 0x73B JUMP JUMPDEST SWAP1 POP SWAP6 SWAP5 POP POP POP POP POP JUMP JUMPDEST PUSH32 0x4F6E6C792041646D696E00000000000000000000000000000000000000000000 PUSH1 0x0 DUP3 ADD MSTORE POP JUMP JUMPDEST PUSH1 0x0 PUSH2 0x80B PUSH1 0xA DUP4 PUSH2 0x700 JUMP JUMPDEST SWAP2 POP PUSH2 0x816 DUP3 PUSH2 0x7D5 JUMP JUMPDEST PUSH1 0x20 DUP3 ADD SWAP1 POP SWAP2 SWAP1 POP JUMP JUMPDEST PUSH1 0x0 PUSH1 0x20 DUP3 ADD SWAP1 POP DUP2 DUP2 SUB PUSH1 0x0 DUP4 ADD MSTORE PUSH2 0x83A DUP2 PUSH2 0x7FE JUMP JUMPDEST SWAP1 POP SWAP2 SWAP1 POP JUMP JUMPDEST PUSH32 0x4E487B7100000000000000000000000000000000000000000000000000000000 PUSH1 0x0 MSTORE PUSH1 0x22 PUSH1 0x4 MSTORE PUSH1 0x24 PUSH1 0x0 REVERT JUMPDEST PUSH1 0x0 PUSH1 0x2 DUP3 DIV SWAP1 POP PUSH1 0x1 DUP3 AND DUP1 PUSH2 0x888 JUMPI PUSH1 0x7F DUP3 AND SWAP2 POP JUMPDEST PUSH1 0x20 DUP3 LT DUP2 SUB PUSH2 0x89B JUMPI PUSH2 0x89A PUSH2 0x841 JUMP JUMPDEST JUMPDEST POP SWAP2 SWAP1 POP JUMP JUMPDEST PUSH1 0x0 DUP2 SWAP1 POP DUP2 PUSH1 0x0 MSTORE PUSH1 0x20 PUSH1 0x0 KECCAK256 SWAP1 POP SWAP2 SWAP1 POP JUMP JUMPDEST PUSH1 0x0 PUSH1 0x20 PUSH1 0x1F DUP4 ADD DIV SWAP1 POP SWAP2 SWAP1 POP JUMP JUMPDEST PUSH1 0x0 DUP3 DUP3 SHL SWAP1 POP SWAP3 SWAP2 POP POP JUMP JUMPDEST PUSH1 0x0 PUSH1 0x8 DUP4 MUL PUSH2 0x903 PUSH32 0xFFFFFFFFFFFFFFFFFFFFFFFFFFFFFFFFFFFFFFFFFFFFFFFFFFFFFFFFFFFFFFFF DUP3 PUSH2 0x8C6 JUMP JUMPDEST PUSH2 0x90D DUP7 DUP4 PUSH2 0x8C6 JUMP JUMPDEST SWAP6 POP DUP1 NOT DUP5 AND SWAP4 POP DUP1 DUP7 AND DUP5 OR SWAP3 POP POP POP SWAP4 SWAP3 POP POP POP JUMP JUMPDEST PUSH1 0x0 DUP2 SWAP1 POP SWAP2 SWAP1 POP JUMP JUMPDEST PUSH1 0x0 PUSH2 0x94A PUSH2 0x945 PUSH2 0x940 DUP5 PUSH2 0x461 JUMP JUMPDEST PUSH2 0x925 JUMP JUMPDEST PUSH2 0x461 JUMP JUMPDEST SWAP1 POP SWAP2 SWAP1 POP JUMP JUMPDEST PUSH1 0x0 DUP2 SWAP1 POP SWAP2 SWAP1 POP JUMP JUMPDEST PUSH2 0x964 DUP4 PUSH2 0x92F JUMP JUMPDEST PUSH2 0x978 PUSH2 0x970 DUP3 PUSH2 0x951 JUMP JUMPDEST DUP5 DUP5 SLOAD PUSH2 0x8D3 JUMP JUMPDEST DUP3 SSTORE POP POP POP POP JUMP JUMPDEST PUSH1 0x0 SWAP1 JUMP JUMPDEST PUSH2 0x98D PUSH2 0x980 JUMP JUMPDEST PUSH2 0x998 DUP2 DUP5 DUP5 PUSH2 0x95B JUMP JUMPDEST POP POP POP JUMP JUMPDEST JUMPDEST DUP2 DUP2 LT ISZERO PUSH2 0x9BC JUMPI PUSH2 0x9B1 PUSH1 0x0 DUP3 PUSH2 0x985 JUMP JUMPDEST PUSH1 0x1 DUP2 ADD SWAP1 POP PUSH2 0x99E JUMP JUMPDEST POP POP JUMP JUMPDEST PUSH1 0x1F DUP3 GT ISZERO PUSH2 0xA01 JUMPI PUSH2 0x9D2 DUP2 PUSH2 0x8A1 JUMP JUMPDEST PUSH2 0x9DB DUP5 PUSH2 0x8B6 JUMP JUMPDEST DUP2 ADD PUSH1 0x20 DUP6 LT ISZERO PUSH2 0x9EA JUMPI DUP2 SWAP1 POP JUMPDEST PUSH2 0x9FE PUSH2 0x9F6 DUP6 PUSH2 0x8B6 JUMP JUMPDEST DUP4 ADD DUP3 PUSH2 0x99D JUMP JUMPDEST POP POP JUMPDEST POP POP POP JUMP JUMPDEST PUSH1 0x0 DUP3 DUP3 SHR SWAP1 POP SWAP3 SWAP2 POP POP JUMP JUMPDEST PUSH1 0x0 PUSH2 0xA24 PUSH1 0x0 NOT DUP5 PUSH1 0x8 MUL PUSH2 0xA06 JUMP JUMPDEST NOT DUP1 DUP4 AND SWAP2 POP POP SWAP3 SWAP2 POP POP JUMP JUMPDEST PUSH1 0x0 PUSH2 0xA3D DUP4 DUP4 PUSH2 0xA13 JUMP JUMPDEST SWAP2 POP DUP3 PUSH1 0x2 MUL DUP3 OR SWAP1 POP SWAP3 SWAP2 POP POP JUMP JUMPDEST PUSH2 0xA56 DUP3 PUSH2 0x6F5 JUMP JUMPDEST PUSH8 0xFFFFFFFFFFFFFFFF DUP2 GT ISZERO PUSH2 0xA6F JUMPI PUSH2 0xA6E PUSH2 0x4B2 JUMP JUMPDEST JUMPDEST PUSH2 0xA79 DUP3 SLOAD PUSH2 0x870 JUMP JUMPDEST PUSH2 0xA84 DUP3 DUP3 DUP6 PUSH2 0x9C0 JUMP JUMPDEST PUSH1 0x0 PUSH1 0x20 SWAP1 POP PUSH1 0x1F DUP4 GT PUSH1 0x1 DUP2 EQ PUSH2 0xAB7 JUMPI PUSH1 0x0 DUP5 ISZERO PUSH2 0xAA5 JUMPI DUP3 DUP8 ADD MLOAD SWAP1 POP JUMPDEST PUSH2 0xAAF DUP6 DUP3 PUSH2 0xA31 JUMP JUMPDEST DUP7 SSTORE POP PUSH2 0xB17 JUMP JUMPDEST PUSH1 0x1F NOT DUP5 AND PUSH2 0xAC5 DUP7 PUSH2 0x8A1 JUMP JUMPDEST PUSH1 0x0 JUMPDEST DUP3 DUP2 LT ISZERO PUSH2 0xAED JUMPI DUP5 DUP10 ADD MLOAD DUP3 SSTORE PUSH1 0x1 DUP3 ADD SWAP2 POP PUSH1 0x20 DUP6 ADD SWAP5 POP PUSH1 0x20 DUP2 ADD SWAP1 POP PUSH2 0xAC8 JUMP JUMPDEST DUP7 DUP4 LT ISZERO PUSH2 0xB0A JUMPI DUP5 DUP10 ADD MLOAD PUSH2 0xB06 PUSH1 0x1F DUP10 AND DUP3 PUSH2 0xA13 JUMP JUMPDEST DUP4 SSTORE POP JUMPDEST PUSH1 0x1 PUSH1 0x2 DUP9 MUL ADD DUP9 SSTORE POP POP POP JUMPDEST POP POP POP POP POP POP JUMP JUMPDEST PUSH1 0x0 DUP2 SWAP1 POP SWAP3 SWAP2 POP POP JUMP JUMPDEST PUSH1 0x0 PUSH2 0xB35 DUP3 PUSH2 0x6F5 JUMP JUMPDEST PUSH2 0xB3F DUP2 DUP6 PUSH2 0xB1F JUMP JUMPDEST SWAP4 POP PUSH2 0xB4F DUP2 DUP6 PUSH1 0x20 DUP7 ADD PUSH2 0x711 JUMP JUMPDEST DUP1 DUP5 ADD SWAP2 POP POP SWAP3 SWAP2 POP POP JUMP JUMPDEST PUSH1 0x0 PUSH2 0xB67 DUP3 DUP5 PUSH2 0xB2A JUMP JUMPDEST SWAP2 POP DUP2 SWAP1 POP SWAP3 SWAP2 POP POP JUMP JUMPDEST PUSH2 0xB7B DUP2 PUSH2 0x461 JUMP JUMPDEST DUP3 MSTORE POP POP JUMP JUMPDEST PUSH1 0x0 PUSH1 0x40 DUP3 ADD SWAP1 POP PUSH2 0xB96 PUSH1 0x0 DUP4 ADD DUP6 PUSH2 0xB72 JUMP JUMPDEST DUP2 DUP2 SUB PUSH1 0x20 DUP4 ADD MSTORE PUSH2 0xBA8 DUP2 DUP5 PUSH2 0x73B JUMP JUMPDEST SWAP1 POP SWAP4 SWAP3 POP POP POP JUMP INVALID LOG2 PUSH5 0x6970667358 0x22 SLT KECCAK256 ADDMOD PUSH15 0xE7C458DA3B4AA59D19C36379EE5525 PUSH6 0x2EB6019A10AA ADDRESS CREATE EXTCODECOPY SUB LT SWAP2 0xA6 DUP10 PUSH5 0x736F6C6343 STOP ADDMOD 0x1E STOP CALLER "
        },
        "methodIdentifiers": {
          "addcertification(uint256,string,string,string,string)": "2dbbc677",
          "certificates(uint256)": "663b3e22"
        }
      }
    }
  }
}